:100000000C9434000C9451000C9451000C94510049
:100010000C9451000C9451000C9451000C9451001C
:100020000C9451000C9451000C9451000C9451000C
:100030000C9451000C9451000C9451000C945100FC
:100040000C9451000C9451000C9451000C945100EC
:100050000C9451000C9451000C9451000C945100DC
:100060000C9451000C94510011241FBECFEFD8E026
:10007000DEBFCDBF11E0A0E0B1E0E0EDF2E002C0F4
:1000800005900D92AC31B107D9F721E0ACE1B1E0B8
:1000900001C01D92AE31B207E1F70E94ED000C9451
:1000A00066010C9400009BB19F70282F207F922B3B
:1000B0009BB95898599A35E03A95F1F7000059984C
:1000C000EFE1F3E03197F1F700C000002BB12F70A2
:1000D000F0E18F9FC0011124822B8BB9599A35E032
:1000E0003A95F1F7000059988FE39FE10197F1F7F6
:1000F00000C00000089581E00E9453008FE39FE15B
:100100000197F1F700C0000080E80C9453008FEFD6
:100110008AB98FE59AEE0197F1F700C0000082E0FE
:100120000E94530088E20E9453008CE00E9453001A
:1001300086E00E94530081E00E9453008FE39FE11C
:100140000197F1F700C000000895FC01DF019081E4
:10015000992349F18BB18F70907F982B9BB9589A56
:10016000599A45E04A95F1F7000059988FE193E0DC
:100170000197F1F700C000008BB131969C9140E1EE
:100180009402900111248F70282B2BB9599A85E085
:100190008A95F1F7000059988FE39FE10197F1F7F5
:1001A00000C00000D3CF0895CF93DF93EA018111FF
:1001B00006C060316CF4862F8F70806807C0813074
:1001C00039F460312CF4862F8F70806C0E945300BC
:1001D000CE01DF91CF910C94A500CF93DF93CDB7E3
:1001E000DEB760970FB6F894DEBF0FBECDBF0E949A
:1001F000870080E091E00E94A5004AE050E0BE0147
:100200006F5F7F4F80911C0190911D010E9426011C
:1002100080EC0E9453008EE091E00E94A500CE0188
:1002200001960E94A5002FEF83ED90E321508040BE
:100230009040E1F700C0000080911C0190911D01E9
:10024000019690931D0180931C01D7CF4532510533
:1002500020F4423010F00C943101FB011082CB01EC
:100260000895BB274A3031F4992322F4BDE29095DA
:1002700081959F4F0C943D01BB27FB015527AA2771
:10028000880F991FAA1FA41710F0A41B8395505123
:10029000B9F7A05DAA3308F0A95DA193009779F79B
:1002A000B111B1931192CB010C945601DC01FC0108
:1002B000672F71917723E1F7329704C07C916D939A
:1002C00070836291AE17BF07C8F30895F894FFCF0B
:1002D00048656C6C6F205072756468766900525581
:0C02E0004E54494D45202873293A200057
:00000001FF
